{
  "contractName": "SmartAuction",
  "abi": [
    {
      "inputs": [
        {
          "internalType": "uint256",
          "name": "_biddingTime",
          "type": "uint256"
        }
      ],
      "stateMutability": "nonpayable",
      "type": "constructor"
    },
    {
      "anonymous": false,
      "inputs": [
        {
          "indexed": false,
          "internalType": "address",
          "name": "winner",
          "type": "address"
        },
        {
          "indexed": false,
          "internalType": "uint256",
          "name": "amount",
          "type": "uint256"
        }
      ],
      "name": "AuctionEnded",
      "type": "event"
    },
    {
      "anonymous": false,
      "inputs": [
        {
          "indexed": false,
          "internalType": "address",
          "name": "bidder",
          "type": "address"
        },
        {
          "indexed": false,
          "internalType": "uint256",
          "name": "amount",
          "type": "uint256"
        }
      ],
      "name": "HighestBidIncreased",
      "type": "event"
    },
    {
      "inputs": [],
      "name": "auctionEnd",
      "outputs": [
        {
          "internalType": "uint256",
          "name": "",
          "type": "uint256"
        }
      ],
      "stateMutability": "view",
      "type": "function"
    },
    {
      "inputs": [],
      "name": "beneficiary",
      "outputs": [
        {
          "internalType": "address",
          "name": "",
          "type": "address"
        }
      ],
      "stateMutability": "view",
      "type": "function"
    },
    {
      "inputs": [],
      "name": "highestBid",
      "outputs": [
        {
          "internalType": "uint256",
          "name": "",
          "type": "uint256"
        }
      ],
      "stateMutability": "view",
      "type": "function"
    },
    {
      "inputs": [],
      "name": "highestBidder",
      "outputs": [
        {
          "internalType": "address",
          "name": "",
          "type": "address"
        }
      ],
      "stateMutability": "view",
      "type": "function"
    },
    {
      "inputs": [],
      "name": "bid",
      "outputs": [],
      "stateMutability": "payable",
      "type": "function"
    },
    {
      "inputs": [],
      "name": "withdraw",
      "outputs": [
        {
          "internalType": "bool",
          "name": "",
          "type": "bool"
        }
      ],
      "stateMutability": "nonpayable",
      "type": "function"
    },
    {
      "inputs": [],
      "name": "auctionEndFunction",
      "outputs": [],
      "stateMutability": "nonpayable",
      "type": "function"
    },
    {
      "inputs": [],
      "name": "auctionAlreadyEnded",
      "outputs": [
        {
          "internalType": "bool",
          "name": "",
          "type": "bool"
        }
      ],
      "stateMutability": "view",
      "type": "function"
    }
  ],
  "bytecode": "0x608060405234801561001057600080fd5b50604051610b2e380380610b2e833981810160405281019061003291906100c5565b336000806101000a81548173ffffffffffffffffffffffffffffffffffffffff021916908373ffffffffffffffffffffffffffffffffffffffff160217905550804261007e9190610121565b60018190555050610177565b600080fd5b6000819050919050565b6100a28161008f565b81146100ad57600080fd5b50565b6000815190506100bf81610099565b92915050565b6000602082840312156100db576100da61008a565b5b60006100e9848285016100b0565b91505092915050565b7f4e487b7100000000000000000000000000000000000000000000000000000000600052601160045260246000fd5b600061012c8261008f565b91506101378361008f565b9250827fffffffffffffffffffffffffffffffffffffffffffffffffffffffffffffffff0382111561016c5761016b6100f2565b5b828201905092915050565b6109a8806101866000396000f3fe60806040526004361061007b5760003560e01c80635983708c1161004e5780635983708c1461010b57806391f9015714610136578063b2ea217f14610161578063d57bde79146101785761007b565b80631998aeef146100805780632a24f46c1461008a57806338af3eed146100b55780633ccfd60b146100e0575b600080fd5b6100886101a3565b005b34801561009657600080fd5b5061009f610334565b6040516100ac9190610656565b60405180910390f35b3480156100c157600080fd5b506100ca61033a565b6040516100d791906106b2565b60405180910390f35b3480156100ec57600080fd5b506100f561035e565b60405161010291906106e8565b60405180910390f35b34801561011757600080fd5b50610120610482565b60405161012d91906106e8565b60405180910390f35b34801561014257600080fd5b5061014b610499565b60405161015891906106b2565b60405180910390f35b34801561016d57600080fd5b506101766104bf565b005b34801561018457600080fd5b5061018d610637565b60405161019a9190610656565b60405180910390f35b6001544211156101e8576040517f08c379a00000000000000000000000000000000000000000000000000000000081526004016101df90610760565b60405180910390fd5b600354341161022c576040517f08c379a0000000000000000000000000000000000000000000000000000000008152600401610223906107cc565b60405180910390fd5b6000600354146102b15760035460046000600260009054906101000a900473ffffffffffffffffffffffffffffffffffffffff1673ffffffffffffffffffffffffffffffffffffffff1673ffffffffffffffffffffffffffffffffffffffff16815260200190815260200160002060008282546102a9919061081b565b925050819055505b3460038190555033600260006101000a81548173ffffffffffffffffffffffffffffffffffffffff021916908373ffffffffffffffffffffffffffffffffffffffff1602179055507ff4757a49b326036464bec6fe419a4ae38c8a02ce3e68bf0809674f6aab8ad300333460405161032a929190610871565b60405180910390a1565b60015481565b60008054906101000a900473ffffffffffffffffffffffffffffffffffffffff1681565b600080600460003373ffffffffffffffffffffffffffffffffffffffff1673ffffffffffffffffffffffffffffffffffffffff1681526020019081526020016000205490506000811115610479576000600460003373ffffffffffffffffffffffffffffffffffffffff1673ffffffffffffffffffffffffffffffffffffffff168152602001908152602001600020819055503373ffffffffffffffffffffffffffffffffffffffff166108fc829081150290604051600060405180830381858888f193505050506104785780600460003373ffffffffffffffffffffffffffffffffffffffff1673ffffffffffffffffffffffffffffffffffffffff16815260200190815260200160002081905550600091505061047f565b5b60019150505b90565b6000600560009054906101000a900460ff16905090565b600260009054906101000a900473ffffffffffffffffffffffffffffffffffffffff1681565b600154421015610504576040517f08c379a00000000000000000000000000000000000000000000000000000000081526004016104fb906108e6565b60405180910390fd5b600560009054906101000a900460ff1615610554576040517f08c379a000000000000000000000000000000000000000000000000000000000815260040161054b90610952565b60405180910390fd5b6001600560006101000a81548160ff02191690831515021790555060008054906101000a900473ffffffffffffffffffffffffffffffffffffffff1673ffffffffffffffffffffffffffffffffffffffff166108fc6003549081150290604051600060405180830381858888f193505050501580156105d7573d6000803e3d6000fd5b507fdaec4582d5d9595688c8c98545fdd1c696d41c6aeaeb636737e84ed2f5c00eda600260009054906101000a900473ffffffffffffffffffffffffffffffffffffffff1660035460405161062d929190610871565b60405180910390a1565b60035481565b6000819050919050565b6106508161063d565b82525050565b600060208201905061066b6000830184610647565b92915050565b600073ffffffffffffffffffffffffffffffffffffffff82169050919050565b600061069c82610671565b9050919050565b6106ac81610691565b82525050565b60006020820190506106c760008301846106a3565b92915050565b60008115159050919050565b6106e2816106cd565b82525050565b60006020820190506106fd60008301846106d9565b92915050565b600082825260208201905092915050565b7f41756374696f6e20616c7265616479206f7665722e0000000000000000000000600082015250565b600061074a601583610703565b915061075582610714565b602082019050919050565b600060208201905081810360008301526107798161073d565b9050919050565b7f546865726520697320616c7265616479206120686967686572206269642e0000600082015250565b60006107b6601e83610703565b91506107c182610780565b602082019050919050565b600060208201905081810360008301526107e5816107a9565b9050919050565b7f4e487b7100000000000000000000000000000000000000000000000000000000600052601160045260246000fd5b60006108268261063d565b91506108318361063d565b9250827fffffffffffffffffffffffffffffffffffffffffffffffffffffffffffffffff03821115610866576108656107ec565b5b828201905092915050565b600060408201905061088660008301856106a3565b6108936020830184610647565b9392505050565b7f41756374696f6e206e6f742079657420656e6465642e00000000000000000000600082015250565b60006108d0601683610703565b91506108db8261089a565b602082019050919050565b600060208201905081810360008301526108ff816108c3565b9050919050565b7f41756374696f6e456e64207761732063616c6c65642e00000000000000000000600082015250565b600061093c601683610703565b915061094782610906565b602082019050919050565b6000602082019050818103600083015261096b8161092f565b905091905056fea2646970667358221220e5a13c0a8716d2da66f48c3ecbce21ca590de54b8e1b3d8f122e6e5f78f00a5e64736f6c634300080d0033",
  "immutableReferences": {},
  "source": "// SPDX-License-Identifier: MIT\r\n\r\npragma solidity >=0.4.22 <0.9.0;\r\n\r\ncontract SmartAuction{\r\n\r\n    address public beneficiary;\r\n    uint public auctionEnd;\r\n\r\n    address public highestBidder;\r\n    uint public highestBid;\r\n\r\n    mapping(address => uint) pendingReturns;\r\n\r\n    bool ended;\r\n\r\n    event HighestBidIncreased(address bidder, uint amount);\r\n    event AuctionEnded(address winner, uint amount);\r\n\r\n    constructor(uint _biddingTime) public {\r\n        beneficiary = msg.sender;\r\n        auctionEnd = block.timestamp + _biddingTime;\r\n    }\r\n\r\n    function bid() public payable {\r\n        require(block.timestamp <= auctionEnd, \"Auction already over.\");\r\n        require(msg.value > highestBid, \"There is already a higher bid.\");\r\n\r\n        if(highestBid != 0){\r\n            pendingReturns[highestBidder] += highestBid;\r\n        }\r\n\r\n        highestBid = msg.value;\r\n        highestBidder = msg.sender;\r\n\r\n        emit HighestBidIncreased(msg.sender, msg.value);\r\n    }\r\n\r\n    function withdraw() public returns (bool){\r\n        uint amount = pendingReturns[msg.sender];\r\n\r\n        if(amount > 0){\r\n            pendingReturns[msg.sender] = 0;\r\n\r\n            if(!payable(msg.sender).send(amount)){ \r\n                pendingReturns[msg.sender] = amount;\r\n                return false;\r\n            }\r\n        }\r\n\r\n        return true;\r\n    }\r\n\r\n    function auctionEndFunction() public {\r\n        require(block.timestamp >= auctionEnd,\"Auction not yet ended.\");\r\n        require(!ended,\"AuctionEnd was called.\");\r\n\r\n        ended = true;\r\n\r\n        payable(beneficiary).transfer(highestBid);\r\n\r\n        emit AuctionEnded(highestBidder, highestBid);\r\n    }\r\n\r\n    function auctionAlreadyEnded() public view returns (bool){\r\n        return ended;\r\n    }\r\n}",
  "sourcePath": "C:\\Users\\alejandro.perez\\Desktop\\smartAuction\\contracts\\SmartAuction.sol",
  "compiler": {
    "name": "solc",
    "version": "0.8.13+commit.abaa5c0e.Emscripten.clang"
  },
  "schemaVersion": "3.4.7",
  "updatedAt": "2022-05-04T15:48:52.619Z",
  "devdoc": {
    "kind": "dev",
    "methods": {},
    "version": 1
  },
  "userdoc": {
    "kind": "user",
    "methods": {},
    "version": 1
  }
}